{
  "contractName": "GNS",
  "abi": [
    {
      "constant": true,
      "inputs": [
        {
          "name": "_rawRecord",
          "type": "bytes"
        }
      ],
      "name": "isValidDNSRecord",
      "outputs": [
        {
          "name": "",
          "type": "bool"
        }
      ],
      "payable": false,
      "stateMutability": "pure",
      "type": "function"
    },
    {
      "constant": true,
      "inputs": [
        {
          "name": "_name",
          "type": "string"
        }
      ],
      "name": "isValidName",
      "outputs": [
        {
          "name": "",
          "type": "bool"
        }
      ],
      "payable": false,
      "stateMutability": "pure",
      "type": "function"
    },
    {
      "constant": true,
      "inputs": [
        {
          "name": "_rawRecord",
          "type": "bytes"
        }
      ],
      "name": "isValidIPv4Record",
      "outputs": [
        {
          "name": "",
          "type": "bool"
        }
      ],
      "payable": false,
      "stateMutability": "pure",
      "type": "function"
    },
    {
      "constant": true,
      "inputs": [
        {
          "name": "_str",
          "type": "bytes"
        },
        {
          "name": "_offset",
          "type": "uint32"
        },
        {
          "name": "_length",
          "type": "uint32"
        }
      ],
      "name": "isValidString",
      "outputs": [
        {
          "name": "",
          "type": "bool"
        }
      ],
      "payable": false,
      "stateMutability": "pure",
      "type": "function"
    },
    {
      "constant": true,
      "inputs": [
        {
          "name": "what",
          "type": "string"
        }
      ],
      "name": "stringToHexHelper",
      "outputs": [
        {
          "name": "",
          "type": "bytes"
        }
      ],
      "payable": false,
      "stateMutability": "pure",
      "type": "function"
    },
    {
      "constant": true,
      "inputs": [
        {
          "name": "_rawRecord",
          "type": "bytes"
        }
      ],
      "name": "isValidIPv6Record",
      "outputs": [
        {
          "name": "",
          "type": "bool"
        }
      ],
      "payable": false,
      "stateMutability": "pure",
      "type": "function"
    },
    {
      "constant": true,
      "inputs": [
        {
          "name": "_rawRecord",
          "type": "bytes"
        }
      ],
      "name": "isValidRecord",
      "outputs": [
        {
          "name": "",
          "type": "bool"
        }
      ],
      "payable": false,
      "stateMutability": "pure",
      "type": "function"
    },
    {
      "constant": true,
      "inputs": [
        {
          "name": "_rawRecord",
          "type": "bytes"
        }
      ],
      "name": "isValidFDNSRecord",
      "outputs": [
        {
          "name": "",
          "type": "bool"
        }
      ],
      "payable": false,
      "stateMutability": "pure",
      "type": "function"
    },
    {
      "constant": true,
      "inputs": [
        {
          "name": "_what",
          "type": "bytes"
        },
        {
          "name": "_offset",
          "type": "uint32"
        }
      ],
      "name": "bytesToUint32LE",
      "outputs": [
        {
          "name": "",
          "type": "uint32"
        }
      ],
      "payable": false,
      "stateMutability": "pure",
      "type": "function"
    },
    {
      "inputs": [],
      "payable": false,
      "stateMutability": "nonpayable",
      "type": "constructor"
    },
    {
      "constant": true,
      "inputs": [
        {
          "name": "_name",
          "type": "string"
        }
      ],
      "name": "getOwnerForName",
      "outputs": [
        {
          "name": "",
          "type": "address"
        }
      ],
      "payable": false,
      "stateMutability": "view",
      "type": "function"
    },
    {
      "constant": false,
      "inputs": [
        {
          "name": "_name",
          "type": "string"
        },
        {
          "name": "_rawRecord",
          "type": "bytes"
        }
      ],
      "name": "createRecord",
      "outputs": [],
      "payable": false,
      "stateMutability": "nonpayable",
      "type": "function"
    },
    {
      "constant": false,
      "inputs": [
        {
          "name": "_name",
          "type": "string"
        },
        {
          "name": "_recordId",
          "type": "uint128"
        }
      ],
      "name": "removeRecordById",
      "outputs": [],
      "payable": false,
      "stateMutability": "nonpayable",
      "type": "function"
    },
    {
      "constant": false,
      "inputs": [
        {
          "name": "_name",
          "type": "string"
        },
        {
          "name": "_rawRecord",
          "type": "bytes"
        }
      ],
      "name": "removeRecordByValue",
      "outputs": [],
      "payable": false,
      "stateMutability": "nonpayable",
      "type": "function"
    },
    {
      "constant": true,
      "inputs": [
        {
          "name": "_recordId",
          "type": "uint128"
        }
      ],
      "name": "getRawRecordById",
      "outputs": [
        {
          "name": "",
          "type": "bytes"
        }
      ],
      "payable": false,
      "stateMutability": "view",
      "type": "function"
    },
    {
      "constant": true,
      "inputs": [
        {
          "name": "_name",
          "type": "string"
        },
        {
          "name": "_typeOfRecord",
          "type": "uint8"
        }
      ],
      "name": "getRecordsList",
      "outputs": [
        {
          "name": "",
          "type": "uint128[]"
        }
      ],
      "payable": false,
      "stateMutability": "view",
      "type": "function"
    },
    {
      "constant": true,
      "inputs": [
        {
          "name": "_name",
          "type": "string"
        }
      ],
      "name": "getRecordsList",
      "outputs": [
        {
          "name": "",
          "type": "uint128[]"
        }
      ],
      "payable": false,
      "stateMutability": "view",
      "type": "function"
    },
    {
      "constant": true,
      "inputs": [
        {
          "name": "_name",
          "type": "string"
        }
      ],
      "name": "isNameExist",
      "outputs": [
        {
          "name": "",
          "type": "bool"
        }
      ],
      "payable": false,
      "stateMutability": "view",
      "type": "function"
    }
  ],
  "bytecode": "0x60806040523480156200001157600080fd5b50600080548091906001016200002891906200002f565b5062000103565b81548183558181111562000059578183600052602060002091820191016200005891906200005e565b5b505050565b6200008c91905b808211156200008857600081816200007e91906200008f565b5060010162000065565b5090565b90565b50805460018160011615610100020316600290046000825580601f10620000b75750620000d8565b601f016020900490600052602060002090810190620000d79190620000db565b5b50565b6200010091905b80821115620000fc576000816000905550600101620000e2565b5090565b90565b612b9a80620001136000396000f3006080604052600436106100f1576000357c0100000000000000000000000000000000000000000000000000000000900463ffffffff16806301ed85b3146100f65780631e30397f146101775780634e2fd4f9146101f857806381c70f19146102795780638bae6f051461031a578063b6371093146103d2578063b80a23c7146104b4578063bde07b8f14610535578063c0ac5207146105e4578063c3fcf9d3146106af578063de7548e214610730578063dfce97f4146107b1578063e8e4346114610836578063f423b474146108e5578063f835a9ff146109a3578063f890a89d14610a24578063ff5018b714610abd575b600080fd5b34801561010257600080fd5b5061015d600480360381019080803590602001908201803590602001908080601f0160208091040260200160405190810160405280939291908181526020018383808284378201915050505050509192919290505050610b66565b604051808215151515815260200191505060405180910390f35b34801561018357600080fd5b506101de600480360381019080803590602001908201803590602001908080601f0160208091040260200160405190810160405280939291908181526020018383808284378201915050505050509192919290505050610c27565b604051808215151515815260200191505060405180910390f35b34801561020457600080fd5b5061025f600480360381019080803590602001908201803590602001908080601f0160208091040260200160405190810160405280939291908181526020018383808284378201915050505050509192919290505050610d26565b604051808215151515815260200191505060405180910390f35b34801561028557600080fd5b50610300600480360381019080803590602001908201803590602001908080601f0160208091040260200160405190810160405280939291908181526020018383808284378201915050505050509192919290803563ffffffff169060200190929190803563ffffffff169060200190929190505050610ddd565b604051808215151515815260200191505060405180910390f35b34801561032657600080fd5b5061035760048036038101908080356fffffffffffffffffffffffffffffffff169060200190929190505050610efe565b6040518080602001828103825283818151815260200191508051906020019080838360005b8381101561039757808201518184015260208101905061037c565b50505050905090810190601f1680156103c45780820380516001836020036101000a031916815260200191505b509250505060405180910390f35b3480156103de57600080fd5b50610439600480360381019080803590602001908201803590602001908080601f016020809104026020016040519081016040528093929190818152602001838380828437820191505050505050919291929050505061100f565b6040518080602001828103825283818151815260200191508051906020019080838360005b8381101561047957808201518184015260208101905061045e565b50505050905090810190601f1680156104a65780820380516001836020036101000a031916815260200191505b509250505060405180910390f35b3480156104c057600080fd5b5061051b600480360381019080803590602001908201803590602001908080601f0160208091040260200160405190810160405280939291908181526020018383808284378201915050505050509192919290505050611019565b604051808215151515815260200191505060405180910390f35b34801561054157600080fd5b506105e2600480360381019080803590602001908201803590602001908080601f0160208091040260200160405190810160405280939291908181526020018383808284378201915050505050509192919290803590602001908201803590602001908080601f01602080910402602001604051908101604052809392919081815260200183838082843782019150505050505091929192905050506110d0565b005b3480156105f057600080fd5b50610658600480360381019080803590602001908201803590602001908080601f0160208091040260200160405190810160405280939291908181526020018383808284378201915050505050509192919290803560ff16906020019092919050505061128f565b6040518080602001828103825283818151815260200191508051906020019060200280838360005b8381101561069b578082015181840152602081019050610680565b505050509050019250505060405180910390f35b3480156106bb57600080fd5b50610716600480360381019080803590602001908201803590602001908080601f01602080910402602001604051908101604052809392919081815260200183838082843782019150505050505091929192905050506113c4565b604051808215151515815260200191505060405180910390f35b34801561073c57600080fd5b50610797600480360381019080803590602001908201803590602001908080601f0160208091040260200160405190810160405280939291908181526020018383808284378201915050505050509192919290505050611472565b604051808215151515815260200191505060405180910390f35b3480156107bd57600080fd5b50610834600480360381019080803590602001908201803590602001908080601f016020809104026020016040519081016040528093929190818152602001838380828437820191505050505050919291929080356fffffffffffffffffffffffffffffffff1690602001909291905050506115a9565b005b34801561084257600080fd5b506108e3600480360381019080803590602001908201803590602001908080601f0160208091040260200160405190810160405280939291908181526020018383808284378201915050505050509192919290803590602001908201803590602001908080601f01602080910402602001604051908101604052809392919081815260200183838082843782019150505050505091929192905050506119ee565b005b3480156108f157600080fd5b5061094c600480360381019080803590602001908201803590602001908080601f0160208091040260200160405190810160405280939291908181526020018383808284378201915050505050509192919290505050612379565b6040518080602001828103825283818151815260200191508051906020019060200280838360005b8381101561098f578082015181840152602081019050610974565b505050509050019250505060405180910390f35b3480156109af57600080fd5b50610a0a600480360381019080803590602001908201803590602001908080601f0160208091040260200160405190810160405280939291908181526020018383808284378201915050505050509192919290505050612496565b604051808215151515815260200191505060405180910390f35b348015610a3057600080fd5b50610a9b600480360381019080803590602001908201803590602001908080601f0160208091040260200160405190810160405280939291908181526020018383808284378201915050505050509192919290803563ffffffff169060200190929190505050612578565b604051808263ffffffff1663ffffffff16815260200191505060405180910390f35b348015610ac957600080fd5b50610b24600480360381019080803590602001908201803590602001908080601f01602080910402602001604051908101604052809392919081815260200183838082843782019150505050505091929192905050506127d9565b604051808273ffffffffffffffffffffffffffffffffffffffff1673ffffffffffffffffffffffffffffffffffffffff16815260200191505060405180910390f35b600080826000815181101515610b7857fe5b9060200101517f010000000000000000000000000000000000000000000000000000000000000090047f0100000000000000000000000000000000000000000000000000000000000000027f01000000000000000000000000000000000000000000000000000000000000009004905060038160ff16141515610bfe5760009150610c21565b610c0d83600180865103610ddd565b1515610c1c5760009150610c21565b600191505b50919050565b600060606000839150600090505b8151816fffffffffffffffffffffffffffffffff161015610d1a577f2e0000000000000000000000000000000000000000000000000000000000000082826fffffffffffffffffffffffffffffffff16815181101515610c9157fe5b9060200101517f010000000000000000000000000000000000000000000000000000000000000090047f0100000000000000000000000000000000000000000000000000000000000000027effffffffffffffffffffffffffffffffffffffffffffffffffffffffffffff19161415610d0d5760009250610d1f565b8080600101915050610c35565b600192505b5050919050565b600080826000815181101515610d3857fe5b9060200101517f010000000000000000000000000000000000000000000000000000000000000090047f0100000000000000000000000000000000000000000000000000000000000000027f01000000000000000000000000000000000000000000000000000000000000009004905060018160ff16141515610dbe5760009150610dd7565b60058351141515610dd25760009150610dd7565b600191505b50919050565b60008082840163ffffffff1685511015610dfa5760009150610ef6565b8363ffffffff1690505b8263ffffffff16816fffffffffffffffffffffffffffffffff161015610ef15760007f01000000000000000000000000000000000000000000000000000000000000000285826fffffffffffffffffffffffffffffffff16815181101515610e6857fe5b9060200101517f010000000000000000000000000000000000000000000000000000000000000090047f0100000000000000000000000000000000000000000000000000000000000000027effffffffffffffffffffffffffffffffffffffffffffffffffffffffffffff19161415610ee45760009150610ef6565b8080600101915050610e04565b600191505b509392505050565b60606000826fffffffffffffffffffffffffffffffff1610158015610f395750600080549050826fffffffffffffffffffffffffffffffff16105b1515610f4457600080fd5b6000826fffffffffffffffffffffffffffffffff16815481101515610f6557fe5b906000526020600020018054600181600116156101000203166002900480601f0160208091040260200160405190810160405280929190818152602001828054600181600116156101000203166002900480156110035780601f10610fd857610100808354040283529160200191611003565b820191906000526020600020905b815481529060010190602001808311610fe657829003601f168201915b50505050509050919050565b6060819050919050565b60008082600081518110151561102b57fe5b9060200101517f010000000000000000000000000000000000000000000000000000000000000090047f0100000000000000000000000000000000000000000000000000000000000000027f01000000000000000000000000000000000000000000000000000000000000009004905060028160ff161415156110b157600091506110ca565b601183511415156110c557600091506110ca565b600191505b50919050565b6000826110dc816113c4565b15156110e757600080fd5b8360006003826040518082805190602001908083835b60208310151561112257805182526020820191506020810190506020830392506110fd565b6001836020036101000a038019825116818451168082178552505050505050905001915050908152602001604051809103902060009054906101000a900473ffffffffffffffffffffffffffffffffffffffff16905060008173ffffffffffffffffffffffffffffffffffffffff1614806111c857503373ffffffffffffffffffffffffffffffffffffffff168173ffffffffffffffffffffffffffffffffffffffff16145b15156111d357600080fd5b6005856040518082805190602001908083835b60208310151561120b57805182526020820191506020810190506020830392506111e6565b6001836020036101000a038019825116818451168082178552505050505050905001915050908152602001604051809103902060009054906101000a90046fffffffffffffffffffffffffffffffff1693506000846fffffffffffffffffffffffffffffffff16141561127d57600080fd5b61128786856115a9565b505050505050565b60608261129b816113c4565b15156112a657600080fd5b6001846040518082805190602001908083835b6020831015156112de57805182526020820191506020810190506020830392506112b9565b6001836020036101000a038019825116818451168082178552505050505050905001915050908152602001604051809103902060008460ff1660ff1681526020019081526020016000208054806020026020016040519081016040528092919081815260200182805480156113b657602002820191906000526020600020906000905b82829054906101000a90046fffffffffffffffffffffffffffffffff166fffffffffffffffffffffffffffffffff1681526020019060100190602082600f010492830192600103820291508084116113615790505b505050505091505092915050565b6000806003836040518082805190602001908083835b6020831015156113ff57805182526020820191506020810190506020830392506113da565b6001836020036101000a038019825116818451168082178552505050505050905001915050908152602001604051809103902060009054906101000a900473ffffffffffffffffffffffffffffffffffffffff1673ffffffffffffffffffffffffffffffffffffffff1614159050919050565b6000806001835111151561148957600091506115a3565b82600081518110151561149857fe5b9060200101517f010000000000000000000000000000000000000000000000000000000000000090047f0100000000000000000000000000000000000000000000000000000000000000027f01000000000000000000000000000000000000000000000000000000000000009004905060408160ff1610158015611520575060ff8160ff1611155b1561152e57600191506115a3565b60008160ff16141561154a5761154383612496565b91506115a3565b60018160ff1614156115665761155f83610d26565b91506115a3565b60028160ff1614156115825761157b83611019565b91506115a3565b60038160ff16141561159e5761159783610b66565b91506115a3565b600091505b50919050565b6000826115b5816113c4565b15156115c057600080fd5b8360006003826040518082805190602001908083835b6020831015156115fb57805182526020820191506020810190506020830392506115d6565b6001836020036101000a038019825116818451168082178552505050505050905001915050908152602001604051809103902060009054906101000a900473ffffffffffffffffffffffffffffffffffffffff16905060008173ffffffffffffffffffffffffffffffffffffffff1614806116a157503373ffffffffffffffffffffffffffffffffffffffff168173ffffffffffffffffffffffffffffffffffffffff16145b15156116ac57600080fd5b6117206002876040518082805190602001908083835b6020831015156116e757805182526020820191506020810190506020830392506116c2565b6001836020036101000a03801982511681845116808217855250505050505090500191505090815260200160405180910390208661286e565b6000856fffffffffffffffffffffffffffffffff1681548110151561174157fe5b906000526020600020016000815460018160011615610100020316600290048110151561176a57fe5b8154600116156117895790600052602060002090602091828204019190065b9054901a7f0100000000000000000000000000000000000000000000000000000000000000027f01000000000000000000000000000000000000000000000000000000000000009004935061185f6001876040518082805190602001908083835b60208310151561180f57805182526020820191506020810190506020830392506117ea565b6001836020036101000a038019825116818451168082178552505050505050905001915050908152602001604051809103902060008660ff1660ff1681526020019081526020016000208661286e565b60006002876040518082805190602001908083835b6020831015156118995780518252602082019150602081019050602083039250611874565b6001836020036101000a03801982511681845116808217855250505050505090500191505090815260200160405180910390208054905014156119e65760006003876040518082805190602001908083835b60208310151561191057805182526020820191506020810190506020830392506118eb565b6001836020036101000a038019825116818451168082178552505050505050905001915050908152602001604051809103902060006101000a81548173ffffffffffffffffffffffffffffffffffffffff021916908373ffffffffffffffffffffffffffffffffffffffff1602179055506020604051908101604052806000815250600460003373ffffffffffffffffffffffffffffffffffffffff1673ffffffffffffffffffffffffffffffffffffffff16815260200190815260200160002090805190602001906119e4929190612a0f565b505b505050505050565b60008060606000808660006003826040518082805190602001908083835b602083101515611a315780518252602082019150602081019050602083039250611a0c565b6001836020036101000a038019825116818451168082178552505050505050905001915050908152602001604051809103902060009054906101000a900473ffffffffffffffffffffffffffffffffffffffff16905060008173ffffffffffffffffffffffffffffffffffffffff161480611ad757503373ffffffffffffffffffffffffffffffffffffffff168173ffffffffffffffffffffffffffffffffffffffff16145b1515611ae257600080fd5b611aeb88611472565b1515611af657600080fd5b6005886040518082805190602001908083835b602083101515611b2e5780518252602082019150602081019050602083039250611b09565b6001836020036101000a038019825116818451168082178552505050505050905001915050908152602001604051809103902060009054906101000a90046fffffffffffffffffffffffffffffffff169650876000815181101515611b8f57fe5b9060200101517f010000000000000000000000000000000000000000000000000000000000000090047f0100000000000000000000000000000000000000000000000000000000000000027f0100000000000000000000000000000000000000000000000000000000000000900495506000876fffffffffffffffffffffffffffffffff161115611e94576001896040518082805190602001908083835b602083101515611c525780518252602082019150602081019050602083039250611c2d565b6001836020036101000a038019825116818451168082178552505050505050905001915050908152602001604051809103902060008760ff1660ff168152602001908152602001600020805480602002602001604051908101604052809291908181526020018280548015611d2a57602002820191906000526020600020906000905b82829054906101000a90046fffffffffffffffffffffffffffffffff166fffffffffffffffffffffffffffffffff1681526020019060100190602082600f01049283019260010382029150808411611cd55790505b50505050509450876040518082805190602001908083835b602083101515611d675780518252602082019150602081019050602083039250611d42565b6001836020036101000a03801982511681845116808217855250505050505090500191505060405180910390209350600092505b8451836fffffffffffffffffffffffffffffffff161015611e93578360001916600086856fffffffffffffffffffffffffffffffff16815181101515611ddd57fe5b906020019060200201516fffffffffffffffffffffffffffffffff16815481101515611e0557fe5b906000526020600020016040518082805460018160011615610100020316600290048015611e6a5780601f10611e48576101008083540402835291820191611e6a565b820191906000526020600020905b815481529060010190602001808311611e56575b50509150506040518091039020600019161415611e8657600080fd5b8280600101935050611d9b565b5b6000876fffffffffffffffffffffffffffffffff161415611f955760016000899080600181540180825580915050906001820390600052602060002001600090919290919091509080519060200190611eee929190612a8f565b50039650866005896040518082805190602001908083835b602083101515611f2b5780518252602082019150602081019050602083039250611f06565b6001836020036101000a038019825116818451168082178552505050505050905001915050908152602001604051809103902060006101000a8154816fffffffffffffffffffffffffffffffff02191690836fffffffffffffffffffffffffffffffff1602179055505b600060038a6040518082805190602001908083835b602083101515611fcf5780518252602082019150602081019050602083039250611faa565b6001836020036101000a038019825116818451168082178552505050505050905001915050908152602001604051809103902060009054906101000a900473ffffffffffffffffffffffffffffffffffffffff1673ffffffffffffffffffffffffffffffffffffffff1614156121b35761204889610c27565b151561205357600080fd5b6000600460003373ffffffffffffffffffffffffffffffffffffffff1673ffffffffffffffffffffffffffffffffffffffff16815260200190815260200160002080546001816001161561010002031660029004905011156120b457600080fd5b88600460003373ffffffffffffffffffffffffffffffffffffffff1673ffffffffffffffffffffffffffffffffffffffff1681526020019081526020016000209080519060200190612107929190612a0f565b503360038a6040518082805190602001908083835b602083101515612141578051825260208201915060208101905060208303925061211c565b6001836020036101000a038019825116818451168082178552505050505050905001915050908152602001604051809103902060006101000a81548173ffffffffffffffffffffffffffffffffffffffff021916908373ffffffffffffffffffffffffffffffffffffffff1602179055505b6002896040518082805190602001908083835b6020831015156121eb57805182526020820191506020810190506020830392506121c6565b6001836020036101000a038019825116818451168082178552505050505050905001915050908152602001604051809103902087908060018154018082558091505090600182039060005260206000209060029182820401919006601002909192909190916101000a8154816fffffffffffffffffffffffffffffffff02191690836fffffffffffffffffffffffffffffffff160217905550506001896040518082805190602001908083835b6020831015156122bd5780518252602082019150602081019050602083039250612298565b6001836020036101000a038019825116818451168082178552505050505050905001915050908152602001604051809103902060008760ff1660ff16815260200190815260200160002087908060018154018082558091505090600182039060005260206000209060029182820401919006601002909192909190916101000a8154816fffffffffffffffffffffffffffffffff02191690836fffffffffffffffffffffffffffffffff16021790555050505050505050505050565b606081612385816113c4565b151561239057600080fd5b6002836040518082805190602001908083835b6020831015156123c857805182526020820191506020810190506020830392506123a3565b6001836020036101000a038019825116818451168082178552505050505050905001915050908152602001604051809103902080548060200260200160405190810160405280929190818152602001828054801561248957602002820191906000526020600020906000905b82829054906101000a90046fffffffffffffffffffffffffffffffff166fffffffffffffffffffffffffffffffff1681526020019060100190602082600f010492830192600103820291508084116124345790505b5050505050915050919050565b6000808260008151811015156124a857fe5b9060200101517f010000000000000000000000000000000000000000000000000000000000000090047f0100000000000000000000000000000000000000000000000000000000000000027f01000000000000000000000000000000000000000000000000000000000000009004905060008160ff1614151561252e5760009150612572565b6005835110156125415760009150612572565b61254c836001612578565b63ffffffff16600584510363ffffffff1614151561256d5760009150612572565b600191505b50919050565b60006004820163ffffffff1683511015151561259357600080fd5b6018836000840163ffffffff168151811015156125ac57fe5b9060200101517f010000000000000000000000000000000000000000000000000000000000000090047f0100000000000000000000000000000000000000000000000000000000000000027f0100000000000000000000000000000000000000000000000000000000000000900463ffffffff169060020a026010846001850163ffffffff1681518110151561263e57fe5b9060200101517f010000000000000000000000000000000000000000000000000000000000000090047f0100000000000000000000000000000000000000000000000000000000000000027f0100000000000000000000000000000000000000000000000000000000000000900463ffffffff169060020a026008856002860163ffffffff168151811015156126d057fe5b9060200101517f010000000000000000000000000000000000000000000000000000000000000090047f0100000000000000000000000000000000000000000000000000000000000000027f0100000000000000000000000000000000000000000000000000000000000000900463ffffffff169060020a02856003860163ffffffff1681518110151561276057fe5b9060200101517f010000000000000000000000000000000000000000000000000000000000000090047f0100000000000000000000000000000000000000000000000000000000000000027f01000000000000000000000000000000000000000000000000000000000000009004171717905092915050565b60006003826040518082805190602001908083835b60208310151561281357805182526020820191506020810190506020830392506127ee565b6001836020036101000a038019825116818451168082178552505050505050905001915050908152602001604051809103902060009054906101000a900473ffffffffffffffffffffffffffffffffffffffff169050919050565b60008090505b8280549050816fffffffffffffffffffffffffffffffff161015612a0a57816fffffffffffffffffffffffffffffffff1683826fffffffffffffffffffffffffffffffff168154811015156128c557fe5b90600052602060002090600291828204019190066010029054906101000a90046fffffffffffffffffffffffffffffffff166fffffffffffffffffffffffffffffffff1614156129fd578280549050600182016fffffffffffffffffffffffffffffffff1610156129e35782600184805490500381548110151561294557fe5b90600052602060002090600291828204019190066010029054906101000a90046fffffffffffffffffffffffffffffffff1683826fffffffffffffffffffffffffffffffff1681548110151561299757fe5b90600052602060002090600291828204019190066010026101000a8154816fffffffffffffffffffffffffffffffff02191690836fffffffffffffffffffffffffffffffff1602179055505b828054809190600190036129f79190612b0f565b50612a0a565b8080600101915050612874565b505050565b828054600181600116156101000203166002900490600052602060002090601f016020900481019282601f10612a5057805160ff1916838001178555612a7e565b82800160010185558215612a7e579182015b82811115612a7d578251825591602001919060010190612a62565b5b509050612a8b9190612b49565b5090565b828054600181600116156101000203166002900490600052602060002090601f016020900481019282601f10612ad057805160ff1916838001178555612afe565b82800160010185558215612afe579182015b82811115612afd578251825591602001919060010190612ae2565b5b509050612b0b9190612b49565b5090565b815481835581811115612b44576001016002900481600101600290048360005260206000209182019101612b439190612b49565b5b505050565b612b6b91905b80821115612b67576000816000905550600101612b4f565b5090565b905600a165627a7a72305820c22f010b74b54929931151e917fcb26fbdc9bfaa8f47739e24860a7751e8f1650029",
  "source": "import \"./GNSlib.sol\";\r\n\r\npragma solidity ^0.4.24;\r\n\r\ncontract GNS is GNSlib{\r\n\r\n    /*  STORAGE\r\n    */\r\n\r\n    bytes[] private _records;\r\n    mapping(string => mapping(uint8 => uint128[])) private _recordIdsForNameByType;\r\n    mapping(string => uint128[]) private _recordIdsForName;\r\n    mapping(string => address) private _ownerOfName;\r\n    mapping(address => string) private _nameOfOwner;\r\n    mapping(bytes => uint128) private _existRawRecordsByContent;\r\n\r\n    /*  CONSTRUCTOR\r\n    */\r\n\r\n    constructor() public{\r\n        _records.length++;\r\n    }\r\n\r\n    /*  MODIFIERS\r\n    */\r\n\r\n    /** @notice Verifies is sender address is owner of record name\r\n    */\r\n    modifier onlyOwnerOfName(string _name) {\r\n        address owner = _ownerOfName[_name];\r\n        require(owner == 0 || owner == msg.sender);\r\n        _;\r\n    }\r\n\r\n    /** @notice Verifies is record name exists\r\n    */\r\n    modifier onlyExistName(string _name) {\r\n        require(isNameExist(_name));\r\n        _;\r\n    }\r\n\r\n    /*  PUBLIC\r\n    */\r\n\r\n    function getOwnerForName(string _name) view public returns (address) {\r\n        return _ownerOfName[_name];\r\n    }\r\n\r\n    function createRecord(\r\n        string _name,\r\n        bytes _rawRecord)\r\n    onlyOwnerOfName(_name)\r\n    public {\r\n        require(isValidRecord(_rawRecord));\r\n        uint128 recordIndex = _existRawRecordsByContent[_rawRecord];\r\n        uint8 typeOfRecord = uint8(_rawRecord[0]);\r\n        if (recordIndex > 0) {\r\n            uint128[] memory recByType = _recordIdsForNameByType[_name][typeOfRecord];\r\n            bytes32 hash = keccak256(_rawRecord);\r\n            for (uint128 i = 0; i < recByType.length; i++)\r\n                if (keccak256(_records[recByType[i]]) == hash)\r\n                    revert();\r\n        }\r\n        if (recordIndex == 0) {\r\n            recordIndex = uint128(_records.push(_rawRecord) - 1);\r\n            _existRawRecordsByContent[_rawRecord] = recordIndex;\r\n        }\r\n        if (_ownerOfName[_name] == 0) {\r\n            require(isValidName(_name));\r\n            if (bytes(_nameOfOwner[msg.sender]).length > 0)\r\n                revert();\r\n            _nameOfOwner[msg.sender] = _name;\r\n            _ownerOfName[_name] = msg.sender;\r\n        }\r\n        _recordIdsForName[_name].push(recordIndex);\r\n        _recordIdsForNameByType[_name][typeOfRecord].push(recordIndex);\r\n    }\r\n\r\n    function removeRecordById(\r\n        string _name,\r\n        uint128 _recordId)\r\n    onlyExistName(_name)\r\n    onlyOwnerOfName(_name)\r\n    public {\r\n        removeFirstElementInArrayByValue(_recordIdsForName[_name], _recordId);\r\n        uint8 typeOfRecord = uint8(_records[_recordId][0]);\r\n        removeFirstElementInArrayByValue(_recordIdsForNameByType[_name][typeOfRecord], _recordId);\r\n        if (_recordIdsForName[_name].length == 0) {\r\n            _ownerOfName[_name] = 0;\r\n            //give freedom to a name?!\r\n            _nameOfOwner[msg.sender] = \"\";\r\n        }\r\n    }\r\n\r\n    function removeRecordByValue(\r\n        string _name,\r\n        bytes _rawRecord)\r\n    onlyExistName(_name)\r\n    onlyOwnerOfName(_name)\r\n    public {\r\n        uint128 recordIndex = _existRawRecordsByContent[_rawRecord];\r\n        if (recordIndex == 0)\r\n            revert();\r\n        removeRecordById(_name, recordIndex);\r\n    }\r\n\r\n    function getRawRecordById(uint128 _recordId) view public returns (bytes){\r\n        require(_recordId >= 0 && _recordId < _records.length);\r\n        return _records[_recordId];\r\n    }\r\n\r\n    function getRecordsList(string _name)\r\n    view\r\n    public\r\n    onlyExistName(_name)\r\n    returns (uint128[]){\r\n        return _recordIdsForName[_name];\r\n    }\r\n\r\n    function getRecordsList(string _name,\r\n        uint8 _typeOfRecord)\r\n    view\r\n    public\r\n    onlyExistName(_name)\r\n    returns (uint128[]){\r\n        return _recordIdsForNameByType[_name][_typeOfRecord];\r\n    }\r\n\r\n    function isNameExist(string _name) view public returns (bool){\r\n        return _ownerOfName[_name] != 0;\r\n    }\r\n\r\n    /*  PRIVATE\r\n    */\r\n\r\n    function removeFirstElementInArrayByValue(uint128[] storage _where, uint128 _what) private {\r\n        for (uint128 i = 0; i < _where.length; i++) {\r\n            if (_where[i] == _what) {\r\n                if (i + 1 < _where.length)\r\n                    _where[i] = _where[_where.length - 1];\r\n                _where.length--;\r\n                break;\r\n            }\r\n        }\r\n    }\r\n\r\n    /*\r\n    \"name\"\r\n    \"name1\"\r\n    \"name2\"\r\n    -------create valid---------\r\n    \"name\",0x0000000003313233\r\n    \"name\",0x0000000003312e33\r\n    \"name\",0x0000000003714233\r\n    \"name1\",0x0000000003714233\r\n    \"name\",0x01ffffffaa\r\n    \"name\",0x01ffbbffaa\r\n    \"name\",0x02ffbbffaaffbbffaaffbbffaaffbbffaa\r\n    \"name\",0x03313233\r\n    \"name\",0x03313333\r\n    -------filter valid---------\r\n    \"name\",0x00\r\n    \"name\",0x01\r\n    \"name\",0x02\r\n    \"name\",0x03\r\n    \"name1\",0x00\r\n    \"name2\",0x00\r\n    ---------removing-----\r\n    \"name\",5\r\n    \"name\",0x01ffbbffaa\r\n    ---------invalid---------\r\n    \"na.me\",0x0000000003313233\r\n    \"name\",0x00000000033132\r\n    \"name\",0x01ffffaa\r\n    \"name\",0x02ffbbffaaffbbffaaffbbffaaffbbff\r\n    \"name\",0x03\r\n    \"name22\",5\r\n    */\r\n}\r\n",
  "sourcePath": "G:\\PROJECTS\\GEO\\eth-fdns-contract\\contracts\\GNS.sol",
  "compiler": {
    "name": "solc",
    "version": "0.4.24+commit.e67f0147.Emscripten.clang"
  },
  "schemaVersion": "2.0.1",
  "updatedAt": "2018-10-23T07:18:32.750Z"
}