{
  "contractName": "GNS",
  "abi": [
    {
      "constant": true,
      "inputs": [
        {
          "name": "_rawRecord",
          "type": "bytes"
        }
      ],
      "name": "isValidDNSRecord",
      "outputs": [
        {
          "name": "",
          "type": "bool"
        }
      ],
      "payable": false,
      "stateMutability": "pure",
      "type": "function"
    },
    {
      "constant": true,
      "inputs": [
        {
          "name": "_name",
          "type": "string"
        }
      ],
      "name": "isValidName",
      "outputs": [
        {
          "name": "",
          "type": "bool"
        }
      ],
      "payable": false,
      "stateMutability": "pure",
      "type": "function"
    },
    {
      "constant": true,
      "inputs": [
        {
          "name": "_rawRecord",
          "type": "bytes"
        }
      ],
      "name": "isValidIPv4Record",
      "outputs": [
        {
          "name": "",
          "type": "bool"
        }
      ],
      "payable": false,
      "stateMutability": "pure",
      "type": "function"
    },
    {
      "constant": true,
      "inputs": [
        {
          "name": "_str",
          "type": "bytes"
        },
        {
          "name": "_offset",
          "type": "uint32"
        },
        {
          "name": "_length",
          "type": "uint32"
        }
      ],
      "name": "isValidString",
      "outputs": [
        {
          "name": "",
          "type": "bool"
        }
      ],
      "payable": false,
      "stateMutability": "pure",
      "type": "function"
    },
    {
      "constant": true,
      "inputs": [
        {
          "name": "_rawRecord",
          "type": "bytes"
        }
      ],
      "name": "isValidIPv6Record",
      "outputs": [
        {
          "name": "",
          "type": "bool"
        }
      ],
      "payable": false,
      "stateMutability": "pure",
      "type": "function"
    },
    {
      "constant": true,
      "inputs": [
        {
          "name": "_rawRecord",
          "type": "bytes"
        }
      ],
      "name": "isValidRecord",
      "outputs": [
        {
          "name": "",
          "type": "bool"
        }
      ],
      "payable": false,
      "stateMutability": "pure",
      "type": "function"
    },
    {
      "constant": true,
      "inputs": [
        {
          "name": "_rawRecord",
          "type": "bytes"
        }
      ],
      "name": "isValidFDNSRecord",
      "outputs": [
        {
          "name": "",
          "type": "bool"
        }
      ],
      "payable": false,
      "stateMutability": "pure",
      "type": "function"
    },
    {
      "constant": true,
      "inputs": [
        {
          "name": "_what",
          "type": "bytes"
        },
        {
          "name": "_offset",
          "type": "uint32"
        }
      ],
      "name": "bytesToUint32LE",
      "outputs": [
        {
          "name": "",
          "type": "uint32"
        }
      ],
      "payable": false,
      "stateMutability": "pure",
      "type": "function"
    },
    {
      "constant": true,
      "inputs": [
        {
          "name": "_name",
          "type": "string"
        }
      ],
      "name": "getOwnerOfName",
      "outputs": [
        {
          "name": "",
          "type": "address"
        }
      ],
      "payable": false,
      "stateMutability": "view",
      "type": "function"
    },
    {
      "constant": false,
      "inputs": [
        {
          "name": "_name",
          "type": "string"
        },
        {
          "name": "_rawRecord",
          "type": "bytes"
        }
      ],
      "name": "createRecord",
      "outputs": [],
      "payable": false,
      "stateMutability": "nonpayable",
      "type": "function"
    },
    {
      "constant": false,
      "inputs": [
        {
          "name": "_name",
          "type": "string"
        },
        {
          "name": "_rawRecord",
          "type": "bytes"
        }
      ],
      "name": "removeRecord",
      "outputs": [],
      "payable": false,
      "stateMutability": "nonpayable",
      "type": "function"
    },
    {
      "constant": true,
      "inputs": [
        {
          "name": "_name",
          "type": "string"
        },
        {
          "name": "_index",
          "type": "uint128"
        }
      ],
      "name": "getRawRecordAt",
      "outputs": [
        {
          "name": "",
          "type": "bytes"
        }
      ],
      "payable": false,
      "stateMutability": "view",
      "type": "function"
    },
    {
      "constant": true,
      "inputs": [
        {
          "name": "_name",
          "type": "string"
        }
      ],
      "name": "getRecordsCount",
      "outputs": [
        {
          "name": "",
          "type": "uint128"
        }
      ],
      "payable": false,
      "stateMutability": "view",
      "type": "function"
    },
    {
      "constant": true,
      "inputs": [
        {
          "name": "_name",
          "type": "string"
        }
      ],
      "name": "isNameExist",
      "outputs": [
        {
          "name": "",
          "type": "bool"
        }
      ],
      "payable": false,
      "stateMutability": "view",
      "type": "function"
    }
  ],
  "bytecode": "0x6080604052612563806100136000396000f3006080604052600436106100d0576000357c0100000000000000000000000000000000000000000000000000000000900463ffffffff16806301ed85b3146100d5578063189eaef9146101565780631e30397f146101f75780634e2fd4f91461027857806358e42561146102f957806381c70f19146103a8578063b465fe7e14610449578063b80a23c7146104f2578063c3fcf9d314610573578063de7548e2146105f4578063e8e4346114610675578063f4c3a6b414610724578063f835a9ff14610822578063f890a89d146108a3575b600080fd5b3480156100e157600080fd5b5061013c600480360381019080803590602001908201803590602001908080601f016020809104026020016040519081016040528093929190818152602001838380828437820191505050505050919291929050505061093c565b604051808215151515815260200191505060405180910390f35b34801561016257600080fd5b506101bd600480360381019080803590602001908201803590602001908080601f01602080910402602001604051908101604052809392919081815260200183838082843782019150505050505091929192905050506109fd565b60405180826fffffffffffffffffffffffffffffffff166fffffffffffffffffffffffffffffffff16815260200191505060405180910390f35b34801561020357600080fd5b5061025e600480360381019080803590602001908201803590602001908080601f0160208091040260200160405190810160405280939291908181526020018383808284378201915050505050509192919290505050610aa2565b604051808215151515815260200191505060405180910390f35b34801561028457600080fd5b506102df600480360381019080803590602001908201803590602001908080601f0160208091040260200160405190810160405280939291908181526020018383808284378201915050505050509192919290505050610ba1565b604051808215151515815260200191505060405180910390f35b34801561030557600080fd5b506103a6600480360381019080803590602001908201803590602001908080601f0160208091040260200160405190810160405280939291908181526020018383808284378201915050505050509192919290803590602001908201803590602001908080601f0160208091040260200160405190810160405280939291908181526020018383808284378201915050505050509192919290505050610c58565b005b3480156103b457600080fd5b5061042f600480360381019080803590602001908201803590602001908080601f0160208091040260200160405190810160405280939291908181526020018383808284378201915050505050509192919290803563ffffffff169060200190929190803563ffffffff1690602001909291905050506113df565b604051808215151515815260200191505060405180910390f35b34801561045557600080fd5b506104b0600480360381019080803590602001908201803590602001908080601f0160208091040260200160405190810160405280939291908181526020018383808284378201915050505050509192919290505050611500565b604051808273ffffffffffffffffffffffffffffffffffffffff1673ffffffffffffffffffffffffffffffffffffffff16815260200191505060405180910390f35b3480156104fe57600080fd5b50610559600480360381019080803590602001908201803590602001908080601f0160208091040260200160405190810160405280939291908181526020018383808284378201915050505050509192919290505050611594565b604051808215151515815260200191505060405180910390f35b34801561057f57600080fd5b506105da600480360381019080803590602001908201803590602001908080601f016020809104026020016040519081016040528093929190818152602001838380828437820191505050505050919291929050505061164b565b604051808215151515815260200191505060405180910390f35b34801561060057600080fd5b5061065b600480360381019080803590602001908201803590602001908080601f01602080910402602001604051908101604052809392919081815260200183838082843782019150505050505091929192905050506116f9565b604051808215151515815260200191505060405180910390f35b34801561068157600080fd5b50610722600480360381019080803590602001908201803590602001908080601f0160208091040260200160405190810160405280939291908181526020018383808284378201915050505050509192919290803590602001908201803590602001908080601f0160208091040260200160405190810160405280939291908181526020018383808284378201915050505050509192919290505050611830565b005b34801561073057600080fd5b506107a7600480360381019080803590602001908201803590602001908080601f016020809104026020016040519081016040528093929190818152602001838380828437820191505050505050919291929080356fffffffffffffffffffffffffffffffff169060200190929190505050611e19565b6040518080602001828103825283818151815260200191508051906020019080838360005b838110156107e75780820151818401526020810190506107cc565b50505050905090810190601f1680156108145780820380516001836020036101000a031916815260200191505b509250505060405180910390f35b34801561082e57600080fd5b50610889600480360381019080803590602001908201803590602001908080601f0160208091040260200160405190810160405280939291908181526020018383808284378201915050505050509192919290505050611ffc565b604051808215151515815260200191505060405180910390f35b3480156108af57600080fd5b5061091a600480360381019080803590602001908201803590602001908080601f0160208091040260200160405190810160405280939291908181526020018383808284378201915050505050509192919290803563ffffffff1690602001909291905050506120de565b604051808263ffffffff1663ffffffff16815260200191505060405180910390f35b60008082600081518110151561094e57fe5b9060200101517f010000000000000000000000000000000000000000000000000000000000000090047f0100000000000000000000000000000000000000000000000000000000000000027f01000000000000000000000000000000000000000000000000000000000000009004905060038160ff161415156109d457600091506109f7565b6109e3836001808651036113df565b15156109f257600091506109f7565b600191505b50919050565b6000806001836040518082805190602001908083835b602083101515610a385780518252602082019150602081019050602083039250610a13565b6001836020036101000a03801982511681845116808217855250505050505090500191505090815260200160405180910390208054905090506000816fffffffffffffffffffffffffffffffff161415610a955760009150610a9c565b6001810391505b50919050565b600060606000839150600090505b8151816fffffffffffffffffffffffffffffffff161015610b95577f2e0000000000000000000000000000000000000000000000000000000000000082826fffffffffffffffffffffffffffffffff16815181101515610b0c57fe5b9060200101517f010000000000000000000000000000000000000000000000000000000000000090047f0100000000000000000000000000000000000000000000000000000000000000027effffffffffffffffffffffffffffffffffffffffffffffffffffffffffffff19161415610b885760009250610b9a565b8080600101915050610ab0565b600192505b5050919050565b600080826000815181101515610bb357fe5b9060200101517f010000000000000000000000000000000000000000000000000000000000000090047f0100000000000000000000000000000000000000000000000000000000000000027f01000000000000000000000000000000000000000000000000000000000000009004905060018160ff16141515610c395760009150610c52565b60058351141515610c4d5760009150610c52565b600191505b50919050565b60008083600080826040518082805190602001908083835b602083101515610c955780518252602082019150602081019050602083039250610c70565b6001836020036101000a038019825116818451168082178552505050505050905001915050908152602001604051809103902060009054906101000a900473ffffffffffffffffffffffffffffffffffffffff1673ffffffffffffffffffffffffffffffffffffffff1614151515610d0c57600080fd5b84600080826040518082805190602001908083835b602083101515610d465780518252602082019150602081019050602083039250610d21565b6001836020036101000a038019825116818451168082178552505050505050905001915050908152602001604051809103902060009054906101000a900473ffffffffffffffffffffffffffffffffffffffff1673ffffffffffffffffffffffffffffffffffffffff161480610e7257503373ffffffffffffffffffffffffffffffffffffffff166000826040518082805190602001908083835b602083101515610e065780518252602082019150602081019050602083039250610de1565b6001836020036101000a038019825116818451168082178552505050505050905001915050908152602001604051809103902060009054906101000a900473ffffffffffffffffffffffffffffffffffffffff1673ffffffffffffffffffffffffffffffffffffffff16145b1515610e7d57600080fd5b6002866040518082805190602001908083835b602083101515610eb55780518252602082019150602081019050602083039250610e90565b6001836020036101000a0380198251168184511680821785525050505050509050019150509081526020016040518091039020856040518082805190602001908083835b602083101515610f1e5780518252602082019150602081019050602083039250610ef9565b6001836020036101000a038019825116818451168082178552505050505050905001915050908152602001604051809103902060009054906101000a90046fffffffffffffffffffffffffffffffff1693506001866040518082805190602001908083835b602083101515610fa85780518252602082019150602081019050602083039250610f83565b6001836020036101000a038019825116818451168082178552505050505050905001915050908152602001604051809103902092506000846fffffffffffffffffffffffffffffffff161415610ffd57600080fd5b836fffffffffffffffffffffffffffffffff166001848054905003141561112b5782805480919060019003611032919061233f565b506002866040518082805190602001908083835b60208310151561106b5780518252602082019150602081019050602083039250611046565b6001836020036101000a0380198251168184511680821785525050505050509050019150509081526020016040518091039020856040518082805190602001908083835b6020831015156110d457805182526020820191506020810190506020830392506110af565b6001836020036101000a038019825116818451168082178552505050505050905001915050908152602001604051809103902060006101000a8154906fffffffffffffffffffffffffffffffff02191690556113d7565b82600184805490500381548110151561114057fe5b9060005260206000200183856fffffffffffffffffffffffffffffffff1681548110151561116a57fe5b90600052602060002001908054600181600116156101000203166002900461119392919061236b565b50828054809190600190036111a8919061233f565b50836002876040518082805190602001908083835b6020831015156111e257805182526020820191506020810190506020830392506111bd565b6001836020036101000a038019825116818451168082178552505050505050905001915050908152602001604051809103902084866fffffffffffffffffffffffffffffffff1681548110151561123557fe5b90600052602060002001604051808280546001816001161561010002031660029004801561129a5780601f1061127857610100808354040283529182019161129a565b820191906000526020600020905b815481529060010190602001808311611286575b5050915050908152602001604051809103902060006101000a8154816fffffffffffffffffffffffffffffffff02191690836fffffffffffffffffffffffffffffffff1602179055506002866040518082805190602001908083835b60208310151561131b57805182526020820191506020810190506020830392506112f6565b6001836020036101000a0380198251168184511680821785525050505050509050019150509081526020016040518091039020856040518082805190602001908083835b602083101515611384578051825260208201915060208101905060208303925061135f565b6001836020036101000a038019825116818451168082178552505050505050905001915050908152602001604051809103902060006101000a8154906fffffffffffffffffffffffffffffffff02191690555b505050505050565b60008082840163ffffffff16855110156113fc57600091506114f8565b8363ffffffff1690505b8263ffffffff16816fffffffffffffffffffffffffffffffff1610156114f35760007f01000000000000000000000000000000000000000000000000000000000000000285826fffffffffffffffffffffffffffffffff1681518110151561146a57fe5b9060200101517f010000000000000000000000000000000000000000000000000000000000000090047f0100000000000000000000000000000000000000000000000000000000000000027effffffffffffffffffffffffffffffffffffffffffffffffffffffffffffff191614156114e657600091506114f8565b8080600101915050611406565b600191505b509392505050565b600080826040518082805190602001908083835b6020831015156115395780518252602082019150602081019050602083039250611514565b6001836020036101000a038019825116818451168082178552505050505050905001915050908152602001604051809103902060009054906101000a900473ffffffffffffffffffffffffffffffffffffffff169050919050565b6000808260008151811015156115a657fe5b9060200101517f010000000000000000000000000000000000000000000000000000000000000090047f0100000000000000000000000000000000000000000000000000000000000000027f01000000000000000000000000000000000000000000000000000000000000009004905060028160ff1614151561162c5760009150611645565b601183511415156116405760009150611645565b600191505b50919050565b6000806000836040518082805190602001908083835b6020831015156116865780518252602082019150602081019050602083039250611661565b6001836020036101000a038019825116818451168082178552505050505050905001915050908152602001604051809103902060009054906101000a900473ffffffffffffffffffffffffffffffffffffffff1673ffffffffffffffffffffffffffffffffffffffff1614159050919050565b60008060018351111515611710576000915061182a565b82600081518110151561171f57fe5b9060200101517f010000000000000000000000000000000000000000000000000000000000000090047f0100000000000000000000000000000000000000000000000000000000000000027f01000000000000000000000000000000000000000000000000000000000000009004905060408160ff16101580156117a7575060ff8160ff1611155b156117b5576001915061182a565b60008160ff1614156117d1576117ca83611ffc565b915061182a565b60018160ff1614156117ed576117e683610ba1565b915061182a565b60028160ff1614156118095761180283611594565b915061182a565b60038160ff1614156118255761181e8361093c565b915061182a565b600091505b50919050565b81600080826040518082805190602001908083835b60208310151561186a5780518252602082019150602081019050602083039250611845565b6001836020036101000a038019825116818451168082178552505050505050905001915050908152602001604051809103902060009054906101000a900473ffffffffffffffffffffffffffffffffffffffff1673ffffffffffffffffffffffffffffffffffffffff16148061199657503373ffffffffffffffffffffffffffffffffffffffff166000826040518082805190602001908083835b60208310151561192a5780518252602082019150602081019050602083039250611905565b6001836020036101000a038019825116818451168082178552505050505050905001915050908152602001604051809103902060009054906101000a900473ffffffffffffffffffffffffffffffffffffffff1673ffffffffffffffffffffffffffffffffffffffff16145b15156119a157600080fd5b60006002846040518082805190602001908083835b6020831015156119db57805182526020820191506020810190506020830392506119b6565b6001836020036101000a0380198251168184511680821785525050505050509050019150509081526020016040518091039020836040518082805190602001908083835b602083101515611a445780518252602082019150602081019050602083039250611a1f565b6001836020036101000a038019825116818451168082178552505050505050905001915050908152602001604051809103902060009054906101000a90046fffffffffffffffffffffffffffffffff166fffffffffffffffffffffffffffffffff161115611ab157600080fd5b611aba8361164b565b1515611b6b57336000846040518082805190602001908083835b602083101515611af95780518252602082019150602081019050602083039250611ad4565b6001836020036101000a038019825116818451168082178552505050505050905001915050908152602001604051809103902060006101000a81548173ffffffffffffffffffffffffffffffffffffffff021916908373ffffffffffffffffffffffffffffffffffffffff1602179055505b60006001846040518082805190602001908083835b602083101515611ba55780518252602082019150602081019050602083039250611b80565b6001836020036101000a0380198251168184511680821785525050505050509050019150509081526020016040518091039020805490501415611c61576001836040518082805190602001908083835b602083101515611c1a5780518252602082019150602081019050602083039250611bf5565b6001836020036101000a03801982511681845116808217855250505050505090500191505090815260200160405180910390208054809190600101611c5f91906123f2565b505b600180846040518082805190602001908083835b602083101515611c9a5780518252602082019150602081019050602083039250611c75565b6001836020036101000a0380198251168184511680821785525050505050509050019150509081526020016040518091039020839080600181540180825580915050906001820390600052602060002001600090919290919091509080519060200190611d0892919061241e565b50036002846040518082805190602001908083835b602083101515611d425780518252602082019150602081019050602083039250611d1d565b6001836020036101000a0380198251168184511680821785525050505050509050019150509081526020016040518091039020836040518082805190602001908083835b602083101515611dab5780518252602082019150602081019050602083039250611d86565b6001836020036101000a038019825116818451168082178552505050505050905001915050908152602001604051809103902060006101000a8154816fffffffffffffffffffffffffffffffff02191690836fffffffffffffffffffffffffffffffff160217905550505050565b60606000826fffffffffffffffffffffffffffffffff16118015611ebc57506001836040518082805190602001908083835b602083101515611e705780518252602082019150602081019050602083039250611e4b565b6001836020036101000a038019825116818451168082178552505050505050905001915050908152602001604051809103902080549050826fffffffffffffffffffffffffffffffff16105b1515611ec757600080fd5b6001836040518082805190602001908083835b602083101515611eff5780518252602082019150602081019050602083039250611eda565b6001836020036101000a0380198251168184511680821785525050505050509050019150509081526020016040518091039020826fffffffffffffffffffffffffffffffff16815481101515611f5157fe5b906000526020600020018054600181600116156101000203166002900480601f016020809104026020016040519081016040528092919081815260200182805460018160011615610100020316600290048015611fef5780601f10611fc457610100808354040283529160200191611fef565b820191906000526020600020905b815481529060010190602001808311611fd257829003601f168201915b5050505050905092915050565b60008082600081518110151561200e57fe5b9060200101517f010000000000000000000000000000000000000000000000000000000000000090047f0100000000000000000000000000000000000000000000000000000000000000027f01000000000000000000000000000000000000000000000000000000000000009004905060008160ff1614151561209457600091506120d8565b6005835110156120a757600091506120d8565b6120b28360016120de565b63ffffffff16600584510363ffffffff161415156120d357600091506120d8565b600191505b50919050565b60006004820163ffffffff168351101515156120f957600080fd5b6018836000840163ffffffff1681518110151561211257fe5b9060200101517f010000000000000000000000000000000000000000000000000000000000000090047f0100000000000000000000000000000000000000000000000000000000000000027f0100000000000000000000000000000000000000000000000000000000000000900463ffffffff169060020a026010846001850163ffffffff168151811015156121a457fe5b9060200101517f010000000000000000000000000000000000000000000000000000000000000090047f0100000000000000000000000000000000000000000000000000000000000000027f0100000000000000000000000000000000000000000000000000000000000000900463ffffffff169060020a026008856002860163ffffffff1681518110151561223657fe5b9060200101517f010000000000000000000000000000000000000000000000000000000000000090047f0100000000000000000000000000000000000000000000000000000000000000027f0100000000000000000000000000000000000000000000000000000000000000900463ffffffff169060020a02856003860163ffffffff168151811015156122c657fe5b9060200101517f010000000000000000000000000000000000000000000000000000000000000090047f0100000000000000000000000000000000000000000000000000000000000000027f01000000000000000000000000000000000000000000000000000000000000009004171717905092915050565b81548183558181111561236657818360005260206000209182019101612365919061249e565b5b505050565b828054600181600116156101000203166002900490600052602060002090601f016020900481019282601f106123a457805485556123e1565b828001600101855582156123e157600052602060002091601f016020900482015b828111156123e05782548255916001019190600101906123c5565b5b5090506123ee91906124ca565b5090565b81548183558181111561241957818360005260206000209182019101612418919061249e565b5b505050565b828054600181600116156101000203166002900490600052602060002090601f016020900481019282601f1061245f57805160ff191683800117855561248d565b8280016001018555821561248d579182015b8281111561248c578251825591602001919060010190612471565b5b50905061249a91906124ca565b5090565b6124c791905b808211156124c357600081816124ba91906124ef565b506001016124a4565b5090565b90565b6124ec91905b808211156124e85760008160009055506001016124d0565b5090565b90565b50805460018160011615610100020316600290046000825580601f106125155750612534565b601f01602090049060005260206000209081019061253391906124ca565b5b505600a165627a7a7230582096ec2123a0495275b69a94e9d9eec0125f858ec69c776af76dcda2b4a268b8e10029",
  "source": "import \"./GNSlib.sol\";\n\npragma solidity ^0.4.24;\n\ncontract GNS is GNSlib {\n\n    /*  STORAGE\n    */\n\n    mapping(string => address) private _owners;\n    mapping(string => bytes[]) private _records;\n    mapping(string => mapping(bytes => uint128)) private _indexesOfRecords;\n\n    /*  MODIFIERS\n    */\n\n    /** @notice Verifies is sender address is owner of record name\n    */\n    modifier onlyOwnerOfName(string _name) {\n        require(_owners[_name] == 0 || _owners[_name] == msg.sender);\n        _;\n    }\n\n    /** @notice Verifies is record name exists\n    */\n    modifier onlyExistName(string _name) {\n        require(_owners[_name] != 0);\n        _;\n    }\n\n    /*  PUBLIC\n    */\n\n    /** @notice Returns owner of record name\n    */\n    function getOwnerOfName(string _name) view public returns (address) {\n        return _owners[_name];\n    }\n\n    /** @notice Adds new record to register\n    */\n    function createRecord(\n        string _name,\n        bytes _rawRecord)\n    onlyOwnerOfName(_name)\n    public\n    {\n        //        require(isValidRecord(_rawRecord)); // fixme disabled validity check\n\n        if (_indexesOfRecords[_name][_rawRecord] > 0) {\n            revert();\n        }\n        if(!isNameExist(_name)){\n            _owners[_name] = msg.sender;\n        }\n        if (_records[_name].length == 0){\n            _records[_name].length++;\n        }\n        _indexesOfRecords[_name][_rawRecord] = uint128(_records[_name].push(_rawRecord) - 1);\n    }\n\n    /** @notice Removes record based on data\n    */\n    function removeRecord(\n        string _name,\n        bytes _rawRecord)\n    onlyExistName(_name)\n    onlyOwnerOfName(_name)\n    public\n    {\n        uint128 recordIndex = _indexesOfRecords[_name][_rawRecord];\n        bytes[] storage recordsForName = _records[_name];\n        if (recordIndex == 0)\n            revert();\n        if (recordsForName.length - 1 == recordIndex) {\n            recordsForName.length--;\n            delete _indexesOfRecords[_name][_rawRecord];\n        } else {\n            recordsForName[recordIndex] = recordsForName[recordsForName.length-1];\n            recordsForName.length--;\n            _indexesOfRecords[_name][recordsForName[recordIndex]] = recordIndex;\n            delete _indexesOfRecords[_name][_rawRecord];\n        }\n    }\n\n    /** @notice Returns record based on ID\n    *   index in range from 1 to getRecordsCount\n    */\n    function getRawRecordAt(\n        string _name,\n        uint128 _index\n    )\n    view\n    public\n    returns (bytes)\n    {\n        require(_index > 0 && _index < _records[_name].length);\n        return _records[_name][_index];\n    }\n\n    /** @notice Get records count for name\n    */\n    function getRecordsCount(\n        string _name\n    )\n    view\n    public\n    returns (uint128)\n    {\n        uint128 count = uint128(_records[_name].length);\n        if(count == 0)\n            return 0;\n        return count - 1;\n    }\n\n    /** @notice Checks whether name in register exists\n    */\n    function isNameExist(\n        string _name)\n    view\n    public\n    returns (bool)\n    {\n        return _owners[_name] != 0;\n    }\n}\n",
  "sourcePath": "/home/paddle-5/workspace/eth-contract-fdns/contracts/GNS.sol",
  "compiler": {
    "name": "solc",
    "version": "0.4.24+commit.e67f0147.Emscripten.clang"
  },
  "schemaVersion": "2.0.1",
  "updatedAt": "2018-11-29T12:29:07.929Z"
}