{
  "contractName": "GNSlib",
  "abi": [
    {
      "inputs": [],
      "payable": false,
      "stateMutability": "nonpayable",
      "type": "constructor"
    },
    {
      "constant": true,
      "inputs": [
        {
          "name": "_name",
          "type": "string"
        }
      ],
      "name": "isValidName",
      "outputs": [
        {
          "name": "",
          "type": "bool"
        }
      ],
      "payable": false,
      "stateMutability": "pure",
      "type": "function"
    },
    {
      "constant": true,
      "inputs": [
        {
          "name": "_str",
          "type": "bytes"
        },
        {
          "name": "_offset",
          "type": "uint32"
        },
        {
          "name": "_length",
          "type": "uint32"
        }
      ],
      "name": "isValidString",
      "outputs": [
        {
          "name": "",
          "type": "bool"
        }
      ],
      "payable": false,
      "stateMutability": "pure",
      "type": "function"
    },
    {
      "constant": true,
      "inputs": [
        {
          "name": "_what",
          "type": "bytes"
        },
        {
          "name": "_offset",
          "type": "uint32"
        }
      ],
      "name": "bytesToUint32LE",
      "outputs": [
        {
          "name": "",
          "type": "uint32"
        }
      ],
      "payable": false,
      "stateMutability": "pure",
      "type": "function"
    },
    {
      "constant": true,
      "inputs": [
        {
          "name": "_rawRecord",
          "type": "bytes"
        }
      ],
      "name": "isValidRecord",
      "outputs": [
        {
          "name": "",
          "type": "bool"
        }
      ],
      "payable": false,
      "stateMutability": "pure",
      "type": "function"
    },
    {
      "constant": true,
      "inputs": [
        {
          "name": "_rawRecord",
          "type": "bytes"
        }
      ],
      "name": "isValidFDNSRecord",
      "outputs": [
        {
          "name": "",
          "type": "bool"
        }
      ],
      "payable": false,
      "stateMutability": "pure",
      "type": "function"
    },
    {
      "constant": true,
      "inputs": [
        {
          "name": "_rawRecord",
          "type": "bytes"
        }
      ],
      "name": "isValidIPv4Record",
      "outputs": [
        {
          "name": "",
          "type": "bool"
        }
      ],
      "payable": false,
      "stateMutability": "pure",
      "type": "function"
    },
    {
      "constant": true,
      "inputs": [
        {
          "name": "_rawRecord",
          "type": "bytes"
        }
      ],
      "name": "isValidIPv6Record",
      "outputs": [
        {
          "name": "",
          "type": "bool"
        }
      ],
      "payable": false,
      "stateMutability": "pure",
      "type": "function"
    },
    {
      "constant": true,
      "inputs": [
        {
          "name": "_rawRecord",
          "type": "bytes"
        }
      ],
      "name": "isValidDNSRecord",
      "outputs": [
        {
          "name": "",
          "type": "bool"
        }
      ],
      "payable": false,
      "stateMutability": "pure",
      "type": "function"
    }
  ],
  "bytecode": "0x608060405234801561001057600080fd5b50610dc8806100206000396000f30060806040526004361061008e576000357c0100000000000000000000000000000000000000000000000000000000900463ffffffff16806301ed85b3146100935780631e30397f146101145780634e2fd4f91461019557806381c70f1914610216578063b80a23c7146102b7578063de7548e214610338578063f835a9ff146103b9578063f890a89d1461043a575b600080fd5b34801561009f57600080fd5b506100fa600480360381019080803590602001908201803590602001908080601f01602080910402602001604051908101604052809392919081815260200183838082843782019150505050505091929192905050506104d3565b604051808215151515815260200191505060405180910390f35b34801561012057600080fd5b5061017b600480360381019080803590602001908201803590602001908080601f0160208091040260200160405190810160405280939291908181526020018383808284378201915050505050509192919290505050610594565b604051808215151515815260200191505060405180910390f35b3480156101a157600080fd5b506101fc600480360381019080803590602001908201803590602001908080601f0160208091040260200160405190810160405280939291908181526020018383808284378201915050505050509192919290505050610693565b604051808215151515815260200191505060405180910390f35b34801561022257600080fd5b5061029d600480360381019080803590602001908201803590602001908080601f0160208091040260200160405190810160405280939291908181526020018383808284378201915050505050509192919290803563ffffffff169060200190929190803563ffffffff16906020019092919050505061074a565b604051808215151515815260200191505060405180910390f35b3480156102c357600080fd5b5061031e600480360381019080803590602001908201803590602001908080601f016020809104026020016040519081016040528093929190818152602001838380828437820191505050505050919291929050505061086b565b604051808215151515815260200191505060405180910390f35b34801561034457600080fd5b5061039f600480360381019080803590602001908201803590602001908080601f0160208091040260200160405190810160405280939291908181526020018383808284378201915050505050509192919290505050610922565b604051808215151515815260200191505060405180910390f35b3480156103c557600080fd5b50610420600480360381019080803590602001908201803590602001908080601f0160208091040260200160405190810160405280939291908181526020018383808284378201915050505050509192919290505050610a59565b604051808215151515815260200191505060405180910390f35b34801561044657600080fd5b506104b1600480360381019080803590602001908201803590602001908080601f0160208091040260200160405190810160405280939291908181526020018383808284378201915050505050509192919290803563ffffffff169060200190929190505050610b3b565b604051808263ffffffff1663ffffffff16815260200191505060405180910390f35b6000808260008151811015156104e557fe5b9060200101517f010000000000000000000000000000000000000000000000000000000000000090047f0100000000000000000000000000000000000000000000000000000000000000027f01000000000000000000000000000000000000000000000000000000000000009004905060038160ff1614151561056b576000915061058e565b61057a8360018086510361074a565b1515610589576000915061058e565b600191505b50919050565b600060606000839150600090505b8151816fffffffffffffffffffffffffffffffff161015610687577f2e0000000000000000000000000000000000000000000000000000000000000082826fffffffffffffffffffffffffffffffff168151811015156105fe57fe5b9060200101517f010000000000000000000000000000000000000000000000000000000000000090047f0100000000000000000000000000000000000000000000000000000000000000027effffffffffffffffffffffffffffffffffffffffffffffffffffffffffffff1916141561067a576000925061068c565b80806001019150506105a2565b600192505b5050919050565b6000808260008151811015156106a557fe5b9060200101517f010000000000000000000000000000000000000000000000000000000000000090047f0100000000000000000000000000000000000000000000000000000000000000027f01000000000000000000000000000000000000000000000000000000000000009004905060018160ff1614151561072b5760009150610744565b6005835114151561073f5760009150610744565b600191505b50919050565b60008082840163ffffffff16855110156107675760009150610863565b8363ffffffff1690505b8263ffffffff16816fffffffffffffffffffffffffffffffff16101561085e5760007f01000000000000000000000000000000000000000000000000000000000000000285826fffffffffffffffffffffffffffffffff168151811015156107d557fe5b9060200101517f010000000000000000000000000000000000000000000000000000000000000090047f0100000000000000000000000000000000000000000000000000000000000000027effffffffffffffffffffffffffffffffffffffffffffffffffffffffffffff191614156108515760009150610863565b8080600101915050610771565b600191505b509392505050565b60008082600081518110151561087d57fe5b9060200101517f010000000000000000000000000000000000000000000000000000000000000090047f0100000000000000000000000000000000000000000000000000000000000000027f01000000000000000000000000000000000000000000000000000000000000009004905060028160ff16141515610903576000915061091c565b60118351141515610917576000915061091c565b600191505b50919050565b600080600183511115156109395760009150610a53565b82600081518110151561094857fe5b9060200101517f010000000000000000000000000000000000000000000000000000000000000090047f0100000000000000000000000000000000000000000000000000000000000000027f01000000000000000000000000000000000000000000000000000000000000009004905060408160ff16101580156109d0575060ff8160ff1611155b156109de5760019150610a53565b60008160ff1614156109fa576109f383610a59565b9150610a53565b60018160ff161415610a1657610a0f83610693565b9150610a53565b60028160ff161415610a3257610a2b8361086b565b9150610a53565b60038160ff161415610a4e57610a47836104d3565b9150610a53565b600091505b50919050565b600080826000815181101515610a6b57fe5b9060200101517f010000000000000000000000000000000000000000000000000000000000000090047f0100000000000000000000000000000000000000000000000000000000000000027f01000000000000000000000000000000000000000000000000000000000000009004905060008160ff16141515610af15760009150610b35565b600583511015610b045760009150610b35565b610b0f836001610b3b565b63ffffffff16600584510363ffffffff16141515610b305760009150610b35565b600191505b50919050565b60006004820163ffffffff16835110151515610b5657600080fd5b6018836000840163ffffffff16815181101515610b6f57fe5b9060200101517f010000000000000000000000000000000000000000000000000000000000000090047f0100000000000000000000000000000000000000000000000000000000000000027f0100000000000000000000000000000000000000000000000000000000000000900463ffffffff169060020a026010846001850163ffffffff16815181101515610c0157fe5b9060200101517f010000000000000000000000000000000000000000000000000000000000000090047f0100000000000000000000000000000000000000000000000000000000000000027f0100000000000000000000000000000000000000000000000000000000000000900463ffffffff169060020a026008856002860163ffffffff16815181101515610c9357fe5b9060200101517f010000000000000000000000000000000000000000000000000000000000000090047f0100000000000000000000000000000000000000000000000000000000000000027f0100000000000000000000000000000000000000000000000000000000000000900463ffffffff169060020a02856003860163ffffffff16815181101515610d2357fe5b9060200101517f010000000000000000000000000000000000000000000000000000000000000090047f0100000000000000000000000000000000000000000000000000000000000000027f010000000000000000000000000000000000000000000000000000000000000090041717179050929150505600a165627a7a7230582003bb74887fc62db8002fe94b7334840957b2cb2c791694d1919d88cf3faee6f40029",
  "source": "pragma solidity ^0.4.24;\n\ncontract GNSlib {\n\n    constructor() public {\n\n    }\n\n    /** @notice Verifies name validness. Name should not contain dots (\".\")\n    */\n    function isValidName(\n        string _name)\n    pure\n    public\n    returns (bool)\n    {\n        bytes memory nameInByteArray = bytes(_name);\n        for (uint128 i = 0; i < nameInByteArray.length; i++)\n            if (nameInByteArray[i] == '.')\n                return false;\n        return true;\n    }\n\n    /** @notice Verifies validness of part of record\n    */\n    function isValidString(\n        bytes _str,\n        uint32 _offset,\n        uint32 _length)\n    pure\n    public\n    returns (bool)\n    {\n        if (_str.length < _offset + _length)\n            return false;\n        for (uint128 i = _offset; i < _length; i++)\n            if (_str[i] == 0)\n                return false;\n        return true;\n    }\n\n    /** @notice Verifies is record name exists\n    */\n    function bytesToUint32LE(\n        bytes _what,\n        uint32 _offset)\n    pure\n    public\n    returns (uint32)\n    {\n        require(_what.length >= _offset + 4);\n        return uint32(_what[_offset + 3])\n        | (uint32(_what[_offset + 2]) << 8)\n        | (uint32(_what[_offset + 1]) << 16)\n        | (uint32(_what[_offset + 0]) << 24);\n    }\n\n    /**\n     * If type of protocol not in range for custom or not unknown type, the function returns false\n     */\n    function isValidRecord(\n        bytes _rawRecord)\n    pure\n    public\n    returns (bool)\n    {\n        if (_rawRecord.length <= 1)\n            return false;\n        uint8 typeOfRecord = uint8(_rawRecord[0]);\n        if (typeOfRecord >= 64 && typeOfRecord <= 255)\n            return true;\n        if (typeOfRecord == 0) //fixme you can't check every type of record onchain, so there is no need to do that\n            return isValidFDNSRecord(_rawRecord);\n        else if (typeOfRecord == 1)\n            return isValidIPv4Record(_rawRecord);\n        else if (typeOfRecord == 2)\n            return isValidIPv6Record(_rawRecord);\n        else if (typeOfRecord == 3)\n            return isValidDNSRecord(_rawRecord);\n        return false;\n    }\n\n    function isValidFDNSRecord(\n        bytes _rawRecord)\n    pure\n    public\n    returns (bool)\n    {\n        uint8 typeOfRecord = uint8(_rawRecord[0]);\n        if (typeOfRecord != 0)\n            return false;\n        if (_rawRecord.length < 5)\n            return false;\n        if (uint32(_rawRecord.length - 5) != bytesToUint32LE(_rawRecord, 1))\n            return false;\n        return true;\n    }\n\n    function isValidIPv4Record(\n        bytes _rawRecord)\n    pure\n    public\n    returns (bool)\n    {\n        uint8 typeOfRecord = uint8(_rawRecord[0]);\n        if (typeOfRecord != 1)\n            return false;\n        if (_rawRecord.length != 5)\n            return false;\n        return true;\n    }\n\n    function isValidIPv6Record(\n        bytes _rawRecord)\n    pure\n    public\n    returns (bool)\n    {\n        uint8 typeOfRecord = uint8(_rawRecord[0]);\n        if (typeOfRecord != 2)\n            return false;\n        if (_rawRecord.length != 17)\n            return false;\n        return true;\n    }\n\n    function isValidDNSRecord(\n        bytes _rawRecord)\n    pure\n    public\n    returns (bool)\n    {\n        uint8 typeOfRecord = uint8(_rawRecord[0]);\n        if (typeOfRecord != 3)\n            return false;\n        if (!isValidString(_rawRecord, 1, uint32(_rawRecord.length - 1)))\n            return false;\n        return true;\n    }\n}\n",
  "sourcePath": "/home/paddle-5/workspace/eth-contract-fdns/contracts/GNSlib.sol",
  "compiler": {
    "name": "solc",
    "version": "0.4.24+commit.e67f0147.Emscripten.clang"
  },
  "schemaVersion": "2.0.1",
  "updatedAt": "2018-11-29T12:29:07.933Z"
}