{
  "contractName": "GNSlib",
  "abi": [
    {
      "inputs": [],
      "payable": false,
      "stateMutability": "nonpayable",
      "type": "constructor"
    },
    {
      "constant": true,
      "inputs": [
        {
          "name": "what",
          "type": "string"
        }
      ],
      "name": "stringToHexHelper",
      "outputs": [
        {
          "name": "",
          "type": "bytes"
        }
      ],
      "payable": false,
      "stateMutability": "pure",
      "type": "function"
    },
    {
      "constant": true,
      "inputs": [
        {
          "name": "_name",
          "type": "string"
        }
      ],
      "name": "isValidName",
      "outputs": [
        {
          "name": "",
          "type": "bool"
        }
      ],
      "payable": false,
      "stateMutability": "pure",
      "type": "function"
    },
    {
      "constant": true,
      "inputs": [
        {
          "name": "_str",
          "type": "bytes"
        },
        {
          "name": "_offset",
          "type": "uint32"
        },
        {
          "name": "_length",
          "type": "uint32"
        }
      ],
      "name": "isValidString",
      "outputs": [
        {
          "name": "",
          "type": "bool"
        }
      ],
      "payable": false,
      "stateMutability": "pure",
      "type": "function"
    },
    {
      "constant": true,
      "inputs": [
        {
          "name": "_what",
          "type": "bytes"
        },
        {
          "name": "_offset",
          "type": "uint32"
        }
      ],
      "name": "bytesToUint32LE",
      "outputs": [
        {
          "name": "",
          "type": "uint32"
        }
      ],
      "payable": false,
      "stateMutability": "pure",
      "type": "function"
    },
    {
      "constant": true,
      "inputs": [
        {
          "name": "_rawRecord",
          "type": "bytes"
        }
      ],
      "name": "isValidRecord",
      "outputs": [
        {
          "name": "",
          "type": "bool"
        }
      ],
      "payable": false,
      "stateMutability": "pure",
      "type": "function"
    },
    {
      "constant": true,
      "inputs": [
        {
          "name": "_rawRecord",
          "type": "bytes"
        }
      ],
      "name": "isValidFDNSRecord",
      "outputs": [
        {
          "name": "",
          "type": "bool"
        }
      ],
      "payable": false,
      "stateMutability": "pure",
      "type": "function"
    },
    {
      "constant": true,
      "inputs": [
        {
          "name": "_rawRecord",
          "type": "bytes"
        }
      ],
      "name": "isValidIPv4Record",
      "outputs": [
        {
          "name": "",
          "type": "bool"
        }
      ],
      "payable": false,
      "stateMutability": "pure",
      "type": "function"
    },
    {
      "constant": true,
      "inputs": [
        {
          "name": "_rawRecord",
          "type": "bytes"
        }
      ],
      "name": "isValidIPv6Record",
      "outputs": [
        {
          "name": "",
          "type": "bool"
        }
      ],
      "payable": false,
      "stateMutability": "pure",
      "type": "function"
    },
    {
      "constant": true,
      "inputs": [
        {
          "name": "_rawRecord",
          "type": "bytes"
        }
      ],
      "name": "isValidDNSRecord",
      "outputs": [
        {
          "name": "",
          "type": "bool"
        }
      ],
      "payable": false,
      "stateMutability": "pure",
      "type": "function"
    }
  ],
  "bytecode": "0x608060405234801561001057600080fd5b50610ebf806100206000396000f300608060405260043610610099576000357c0100000000000000000000000000000000000000000000000000000000900463ffffffff16806301ed85b31461009e5780631e30397f1461011f5780634e2fd4f9146101a057806381c70f1914610221578063b6371093146102c2578063b80a23c7146103a4578063de7548e214610425578063f835a9ff146104a6578063f890a89d14610527575b600080fd5b3480156100aa57600080fd5b50610105600480360381019080803590602001908201803590602001908080601f01602080910402602001604051908101604052809392919081815260200183838082843782019150505050505091929192905050506105c0565b604051808215151515815260200191505060405180910390f35b34801561012b57600080fd5b50610186600480360381019080803590602001908201803590602001908080601f0160208091040260200160405190810160405280939291908181526020018383808284378201915050505050509192919290505050610681565b604051808215151515815260200191505060405180910390f35b3480156101ac57600080fd5b50610207600480360381019080803590602001908201803590602001908080601f0160208091040260200160405190810160405280939291908181526020018383808284378201915050505050509192919290505050610780565b604051808215151515815260200191505060405180910390f35b34801561022d57600080fd5b506102a8600480360381019080803590602001908201803590602001908080601f0160208091040260200160405190810160405280939291908181526020018383808284378201915050505050509192919290803563ffffffff169060200190929190803563ffffffff169060200190929190505050610837565b604051808215151515815260200191505060405180910390f35b3480156102ce57600080fd5b50610329600480360381019080803590602001908201803590602001908080601f0160208091040260200160405190810160405280939291908181526020018383808284378201915050505050509192919290505050610958565b6040518080602001828103825283818151815260200191508051906020019080838360005b8381101561036957808201518184015260208101905061034e565b50505050905090810190601f1680156103965780820380516001836020036101000a031916815260200191505b509250505060405180910390f35b3480156103b057600080fd5b5061040b600480360381019080803590602001908201803590602001908080601f0160208091040260200160405190810160405280939291908181526020018383808284378201915050505050509192919290505050610962565b604051808215151515815260200191505060405180910390f35b34801561043157600080fd5b5061048c600480360381019080803590602001908201803590602001908080601f0160208091040260200160405190810160405280939291908181526020018383808284378201915050505050509192919290505050610a19565b604051808215151515815260200191505060405180910390f35b3480156104b257600080fd5b5061050d600480360381019080803590602001908201803590602001908080601f0160208091040260200160405190810160405280939291908181526020018383808284378201915050505050509192919290505050610b50565b604051808215151515815260200191505060405180910390f35b34801561053357600080fd5b5061059e600480360381019080803590602001908201803590602001908080601f0160208091040260200160405190810160405280939291908181526020018383808284378201915050505050509192919290803563ffffffff169060200190929190505050610c32565b604051808263ffffffff1663ffffffff16815260200191505060405180910390f35b6000808260008151811015156105d257fe5b9060200101517f010000000000000000000000000000000000000000000000000000000000000090047f0100000000000000000000000000000000000000000000000000000000000000027f01000000000000000000000000000000000000000000000000000000000000009004905060038160ff16141515610658576000915061067b565b61066783600180865103610837565b1515610676576000915061067b565b600191505b50919050565b600060606000839150600090505b8151816fffffffffffffffffffffffffffffffff161015610774577f2e0000000000000000000000000000000000000000000000000000000000000082826fffffffffffffffffffffffffffffffff168151811015156106eb57fe5b9060200101517f010000000000000000000000000000000000000000000000000000000000000090047f0100000000000000000000000000000000000000000000000000000000000000027effffffffffffffffffffffffffffffffffffffffffffffffffffffffffffff191614156107675760009250610779565b808060010191505061068f565b600192505b5050919050565b60008082600081518110151561079257fe5b9060200101517f010000000000000000000000000000000000000000000000000000000000000090047f0100000000000000000000000000000000000000000000000000000000000000027f01000000000000000000000000000000000000000000000000000000000000009004905060018160ff161415156108185760009150610831565b6005835114151561082c5760009150610831565b600191505b50919050565b60008082840163ffffffff16855110156108545760009150610950565b8363ffffffff1690505b8263ffffffff16816fffffffffffffffffffffffffffffffff16101561094b5760007f01000000000000000000000000000000000000000000000000000000000000000285826fffffffffffffffffffffffffffffffff168151811015156108c257fe5b9060200101517f010000000000000000000000000000000000000000000000000000000000000090047f0100000000000000000000000000000000000000000000000000000000000000027effffffffffffffffffffffffffffffffffffffffffffffffffffffffffffff1916141561093e5760009150610950565b808060010191505061085e565b600191505b509392505050565b6060819050919050565b60008082600081518110151561097457fe5b9060200101517f010000000000000000000000000000000000000000000000000000000000000090047f0100000000000000000000000000000000000000000000000000000000000000027f01000000000000000000000000000000000000000000000000000000000000009004905060028160ff161415156109fa5760009150610a13565b60118351141515610a0e5760009150610a13565b600191505b50919050565b60008060018351111515610a305760009150610b4a565b826000815181101515610a3f57fe5b9060200101517f010000000000000000000000000000000000000000000000000000000000000090047f0100000000000000000000000000000000000000000000000000000000000000027f01000000000000000000000000000000000000000000000000000000000000009004905060408160ff1610158015610ac7575060ff8160ff1611155b15610ad55760019150610b4a565b60008160ff161415610af157610aea83610b50565b9150610b4a565b60018160ff161415610b0d57610b0683610780565b9150610b4a565b60028160ff161415610b2957610b2283610962565b9150610b4a565b60038160ff161415610b4557610b3e836105c0565b9150610b4a565b600091505b50919050565b600080826000815181101515610b6257fe5b9060200101517f010000000000000000000000000000000000000000000000000000000000000090047f0100000000000000000000000000000000000000000000000000000000000000027f01000000000000000000000000000000000000000000000000000000000000009004905060008160ff16141515610be85760009150610c2c565b600583511015610bfb5760009150610c2c565b610c06836001610c32565b63ffffffff16600584510363ffffffff16141515610c275760009150610c2c565b600191505b50919050565b60006004820163ffffffff16835110151515610c4d57600080fd5b6018836000840163ffffffff16815181101515610c6657fe5b9060200101517f010000000000000000000000000000000000000000000000000000000000000090047f0100000000000000000000000000000000000000000000000000000000000000027f0100000000000000000000000000000000000000000000000000000000000000900463ffffffff169060020a026010846001850163ffffffff16815181101515610cf857fe5b9060200101517f010000000000000000000000000000000000000000000000000000000000000090047f0100000000000000000000000000000000000000000000000000000000000000027f0100000000000000000000000000000000000000000000000000000000000000900463ffffffff169060020a026008856002860163ffffffff16815181101515610d8a57fe5b9060200101517f010000000000000000000000000000000000000000000000000000000000000090047f0100000000000000000000000000000000000000000000000000000000000000027f0100000000000000000000000000000000000000000000000000000000000000900463ffffffff169060020a02856003860163ffffffff16815181101515610e1a57fe5b9060200101517f010000000000000000000000000000000000000000000000000000000000000090047f0100000000000000000000000000000000000000000000000000000000000000027f010000000000000000000000000000000000000000000000000000000000000090041717179050929150505600a165627a7a723058205ee1d9ffc3bb7bf08511cdffdc321c54f8eb9941112bc7eaf3c260de034343f00029",
  "source": "pragma solidity ^0.4.24;\r\n\r\ncontract GNSlib {\r\n\r\n    constructor() public {\r\n\r\n    }\r\n\r\n    function stringToHexHelper(string what) pure public returns (bytes) {\r\n        return bytes(what);\r\n    }\r\n\r\n    /** @notice Verifies name validness. Name should not contain dots (\".\")\r\n    */\r\n    function isValidName(string _name) pure public returns (bool) {\r\n        bytes memory nameInByteArray = bytes(_name);\r\n        for (uint128 i = 0; i < nameInByteArray.length; i++)\r\n            if (nameInByteArray[i] == '.')\r\n                return false;\r\n        return true;\r\n    }\r\n\r\n    /** @notice Verifies validness of part of record\r\n    */\r\n    function isValidString(bytes _str, uint32 _offset, uint32 _length) pure public returns (bool) {\r\n        if (_str.length < _offset + _length)\r\n            return false;\r\n        for (uint128 i = _offset; i < _length; i++)\r\n            if (_str[i] == 0)\r\n                return false;\r\n        return true;\r\n    }\r\n\r\n    /** @notice Verifies is record name exists\r\n    */\r\n    function bytesToUint32LE(bytes _what, uint32 _offset) pure public returns (uint32) {\r\n        require(_what.length >= _offset + 4);\r\n        return uint32(_what[_offset + 3])\r\n        | (uint32(_what[_offset + 2]) << 8)\r\n        | (uint32(_what[_offset + 1]) << 16)\r\n        | (uint32(_what[_offset + 0]) << 24);\r\n    }\r\n\r\n    /**\r\n     * If type of protocol not in range for custom or not unknown type, the function returns false\r\n     */\r\n    function isValidRecord(bytes _rawRecord) pure public returns (bool) {\r\n        if (_rawRecord.length <= 1)\r\n            return false;\r\n        uint8 typeOfRecord = uint8(_rawRecord[0]);\r\n        if (typeOfRecord >= 64 && typeOfRecord <= 255)\r\n            return true;\r\n        if (typeOfRecord == 0) //fixme you can't check every type of record onchain, so there is no need to do that\r\n            return isValidFDNSRecord(_rawRecord);\r\n        else if (typeOfRecord == 1)\r\n            return isValidIPv4Record(_rawRecord);\r\n        else if (typeOfRecord == 2)\r\n            return isValidIPv6Record(_rawRecord);\r\n        else if (typeOfRecord == 3)\r\n            return isValidDNSRecord(_rawRecord);\r\n        return false;\r\n    }\r\n\r\n    function isValidFDNSRecord(bytes _rawRecord) pure public returns (bool) {\r\n        uint8 typeOfRecord = uint8(_rawRecord[0]);\r\n        if (typeOfRecord != 0)\r\n            return false;\r\n        if (_rawRecord.length < 5)\r\n            return false;\r\n        if (uint32(_rawRecord.length - 5) != bytesToUint32LE(_rawRecord, 1))\r\n            return false;\r\n        return true;\r\n    }\r\n\r\n    function isValidIPv4Record(bytes _rawRecord) pure public returns (bool) {\r\n        uint8 typeOfRecord = uint8(_rawRecord[0]);\r\n        if (typeOfRecord != 1)\r\n            return false;\r\n        if (_rawRecord.length != 5)\r\n            return false;\r\n        return true;\r\n    }\r\n\r\n    function isValidIPv6Record(bytes _rawRecord) pure public returns (bool) {\r\n        uint8 typeOfRecord = uint8(_rawRecord[0]);\r\n        if (typeOfRecord != 2)\r\n            return false;\r\n        if (_rawRecord.length != 17)\r\n            return false;\r\n        return true;\r\n    }\r\n\r\n    function isValidDNSRecord(bytes _rawRecord) pure public returns (bool) {\r\n        uint8 typeOfRecord = uint8(_rawRecord[0]);\r\n        if (typeOfRecord != 3)\r\n            return false;\r\n        if (!isValidString(_rawRecord, 1, uint32(_rawRecord.length - 1)))\r\n            return false;\r\n        return true;\r\n    }\r\n}\r\n",
  "sourcePath": "G:\\PROJECTS\\GEO\\eth-fdns-contract\\contracts\\GNSlib.sol",
  "compiler": {
    "name": "solc",
    "version": "0.4.24+commit.e67f0147.Emscripten.clang"
  },
  "schemaVersion": "2.0.1",
  "updatedAt": "2018-10-23T07:09:48.038Z"
}